:040000008A15FE2936
:0E000600F201F101F001F801F30100300800F1
:100014007B15FB1F14280130F300F201F101F001FC
:08002400FA0DF20CFF30080098
:08002C00FA1FF2130030080076
:10003400FB14FB1F2428FF30F300F200F100F00052
:08004400FA0DF20CFF30080078
:04004C0000000800A8
:10005000083083120313FC002330FD00FD0B2E2813
:06006000FC0B2E28080035
:1000660083120313861700000030061B0130F100CF
:0A007600861300007108F000080076
:10008000A1017208031D55287108F2007008F100E3
:10009000F001A1157208031D55287108F200F10145
:1000A000A11121167208031963282108F302031D08
:1000B000031C67280310F21B6B28F00DF10DF20DE5
:1000C000F30B5B2867280130FC0003206E28023008
:0E00D000FC000A206E280430FC0016200800F8
:1000DE00FB09FA09F909F809F80A0319F90A0319CB
:0800EE00FA0A0319FB0A0800DD
:1000F6007C18B128FC1882287C19D0287B28A101FD
:100106007208031DA2287108F2007008F100780831
:10011600F000F801A1157208031DA2287108F2006B
:100126007008F100F001A11121167208031DA22822
:100136007108F200F101A11572080319C4282108FB
:10014600F302031D031CC8280310F21BB128F80D87
:10015600F00DF10DF20DF30BA828C8287B1B701CBF
:10016600CC28F81FCC28F00A0319F10A0319F20A61
:10017600031DCC28F20CF10CF00CF30A0319D0285D
:10018600CC280130FC000320D3280230FC000A20D2
:10019600D3280430FC001620D3280830FC001A208F
:0401A600000008004D
:1001AA00103083120313FD00FD0BD928000008004C
:1001BA007408F8027508031C750FF9027608031C07
:1001CA00760FFA027708031C770FFB02F30D07304C
:1001DA00FC00730DF80DF90DFA0DFB0D7408731C74
:1001EA000429F8027508031C750FF9027608031C26
:1001FA00760FFA027708031C770FFB021129F8071A
:10020A0075080318750FF90776080318760FFA07A9
:10021A0077080318770FFB07F30DFC0BEE28720D16
:10022A00F80DF90DFA0DFB0D7408731C2A29F80252
:10023A007508031C750FF9027608031C760FFA027B
:10024A007708031C770FFB023729F807750803188C
:10025A00750FF90776080318760FFA077708031857
:10026A00770FFB07F20D0730FC00720DF80DF90D40
:10027A00FA0DFB0D7408721C5029F8027508031C4C
:10028A00750FF9027608031C760FFA027708031C29
:10029A00770FFB025D29F80775080318750FF90730
:1002AA0076080318760FFA0777080318770FFB0703
:1002BA00F20DFC0B3A29710DF80DF90DFA0DFB0D33
:1002CA007408721C7629F8027508031C750FF90266
:1002DA007608031C760FFA027708031C770FFB02D5
:1002EA008329F80775080318750FF90776080318A4
:1002FA00760FFA0777080318770FFB07F10D073017
:10030A00FC00710DF80DF90DFA0DFB0D7408711C46
:10031A009C29F8027508031C750FF9027608031C5C
:10032A00760FFA027708031C770FFB02A929F80750
:10033A0075080318750FF90776080318760FFA0778
:10034A0077080318770FFB07F10DFC0B8629700D50
:10035A00F80DF90DFA0DFB0D7408711CC229F8028B
:10036A007508031C750FF9027608031C760FFA024A
:10037A007708031C770FFB02CF29F80775080318C3
:10038A00750FF90776080318760FFA077708031826
:10039A00770FFB07F00D0730FC00700DF80DF90D13
:1003AA00FA0DFB0D7408701CE829F8027508031C85
:1003BA00750FF9027608031C760FFA027708031CF8
:1003CA00770FFB02F529F80775080318750FF90767
:1003DA0076080318760FFA0777080318770FFB07D2
:1003EA00F00DFC0BD2297018082A7408F807750852
:1003FA000318750FF90776080318760FFA077708B6
:08040A000318770FFB0708003F
:100412008312031372087606A100F801F90173082A
:100422007702031C2C2A7708FD007308F7007D0869
:10043200F3007608FD007208F6007D08F2007508E8
:10044200FD007108F5007D08F1007408FD007008D8
:10045200F4007D08F00077080319A52A7208FA0053
:10046200F217F61777087302F70003195F2A0830AC
:100472007702031C552AF7007408F9007508F40086
:100482007608F500F60108307702031C552AF700BA
:100492007408F9007508F400F50108307702031CAE
:1004A200552A7A08F200A52A770803195F2A031051
:1004B200F60CF50CF40CF90CF70B582AA11F6C2A58
:1004C200F909F409F509F609F90A0319F40A0319F5
:1004D200F50A0319F60A7908F80774080318740F65
:1004E200F00775080318750FF10776080318760FE1
:1004F200F207A11B852A031C952AF20CF10CF00CC1
:10050200F80CF30F952AA12A0318992AF809F00981
:10051200F109F209F80A0319F00A0319F10A031999
:10052200F20A8030FA069D2A0130FC007B20A72ABD
:100532000230FC007B20A72A0430FC004020A72ABE
:100542000830FC001A20A72A0030FC000000080036
:10055200831203137408003A031DC42A7508003A73
:10056200031DC42A7608003A031DC42A7708003AFC
:10057200031DC42AFF30F000FF30F100FF30F2000B
:100582007F30F3005D2B83120313FC01F71BFC0A7F
:10059200FD01FB01FA01F901F8017308720471040B
:1005A20070040319582B73087706A000A01BFD09DD
:1005B200F71FE62AF409F509F609F709F40A0319FF
:1005C200F50A0319F60A0319F70AF31FF32AF009C9
:1005D200F109F209F309F00A0319F10A0319F20AFF
:1005E2000319F30A73087704A000A01B142BDD2063
:1005F200FC1B312BFD1F582BF009F109F209F309FD
:10060200F00A0319F10A0319F20A0319F30AF809A5
:10061200F909FA09FB09F80A0319F90A0319FA0A8E
:100622000319FB0A582BF71F2B2BF31B252B7308DF
:10063200FB007208FA007108F9007008F800F30173
:10064200F201F101F001FB2AF301F201F101F001E3
:10065200F00A0034F309F209F109F009FC17F82A4B
:10066200F80A0319F90A0319FA0A0319FB0A7408AA
:100672007802031DFB2A75087902031DFB2A7608FE
:100682007A02031DFB2A77087B02031DFB2AFB016A
:10069200FA01F901F801F00A0319F10A0319F20A41
:1006A2000319F30AF31FFB2AA0012016FF34A0014D
:0A06B2007C1C5C2B6F20003E08004A
:0606BC00FB15FF300800F1
:1006C2007B14FB1F6C2BF201FA1FFF30F200F100CA
:0A06D200F000FA0DF20CFF300800F2
:1006DC0083160313BC01BD01BE01BF018312061FAB
:1006EC00782B742B17308316BA000030BB00803087
:1006FC003B06F00080307002031D862B00303A025E
:10070C00031CB72B33207008013A031DB12B831641
:10071C003A08F4000130F0000030F1000030F20033
:10072C000030F30074080319A22BF00DF10DF20D3B
:10073C00F30D7010FF3E992B83167008BC077108DF
:10074C000318710FBD0772080318720FBE077308E8
:10075C000318730FBF0783160130BA02031CBB03C7
:10076C007D2B2130FD00FD0BB92B3908803A031D80
:10077C00C12B3320DD2B83163908203A031DCD2BDA
:10078C0033202130FD00FD0BC92B3320DD2B8316CC
:10079C003908403A031DDD2B33202130FD00FD0BC1
:1007AC00D52B33202130FD00FD0BDA2B332000300C
:1007BC0083163C05F10000303D05F20080303E050B
:1007CC00F30000303F05F4000030F0007406031D08
:1007DC00F92B70087306031DF92B70087206031DA4
:1007EC00F92B7108003A03192B2C831600303C04AA
:1007FC00F80000303D04F90000303E04FA00FF30F0
:10080C003F04FB007808BC007908BD007A08BE00E4
:10081C007B08BF00F401F501F601F7017408F00044
:10082C007508F1007608F2007708F3007808F002FA
:10083C007908031C790FF1027A08031C7A0FF20273
:10084C007B08031C7B0FF302342C83163C08F0004E
:0E085C003D08F1003E08F2003F08F3000800DE
:10086A0083160313B91B3C2C831286123E2C831267
:10087A0086168316391B442C83120612462C8312C1
:10088A0006168316B91A4C2C831286114E2C831223
:10089A0086158316391A542C83120611562C831284
:1008AA00061566185A2C06145B2C06108614262088
:1008BA0086108316B919642C83128612662C831249
:1008CA008616831639196C2C831206126E2C831223
:1008DA0006168316B918742C83128611762C831285
:1008EA008615831639187C2C831206117E2C8312E6
:1008FA0006156618822C0614832C061086142620E8
:0E090A008610661C8A2C28208B2CD520080015
:0C091800831203138030F6060922080049
:1009240083160313B501B601B701B801B401320847
:1009340034020318BA2C3308B9006E237008B507C3
:1009440071080318710FB60772080318720FB707FE
:1009540073080318730FB8078230FC00DD30FD0004
:10096400FD0BB22CFC0BB22C00000000B40A992C35
:100974003408F400F501F601F7013508F0003608F3
:0E098400F1003708F2003808F300A92208003D
:1009920083120313FB017308031D77080319202D2B
:1009A20072087606FA007708F3077E30031CDD2C06
:1009B200F3020318232DE02CF302031C262D7208E8
:1009C200F8007108FC007008FD00F817F617031014
:1009D200F201F101F0011830A1007D1CFA2C74081B
:1009E200F00775080318750FF10776080318760FDC
:1009F200F207F20CF10CF00CF80CFC0CFD0C0310DD
:100A0200A10BEE2CF21B0A2DF80DF00DF10DF20DDB
:100A1200F3037B1B701C1C2DF81F1C2DF00A0319FD
:100A2200F10A0319F20A031D1C2DF20CF10CF00C51
:100A3200F30A0319232DFA1FF2130030282D013077
:100A42000320282D02301A20282D04300A2000000D
:020A520008009A
:100A5400831203137408003A031D452D7508003AE8
:100A6400031D452D7608003A031D452D7708003AED
:100A7400031D452DFF30F000FF30F1007F30F20000
:100A8400FF30F300E02D8312031377080319D42DEC
:100A940073080319D72D720876068039FA00F21705
:100AA400F617A1017208F8007108FC007008FD0037
:100AB4007408FD027508031C750FFC027608031CFC
:100AC400760FF802F801FC01FD01031C702D0310E0
:100AD400F20CF10CF00CF80C0130A1007708F302D1
:100AE400031C7A2D7E302107F3070318DA2D7F2D9E
:100AF4007E302107F307031CDD2D1830FA07FD0DA6
:100B0400FC0DF80DF00DF10DF20DA10D7408F002BD
:100B14007508031C750FF1027608031C760FF202A8
:100B2400760DA104211C982D7D14A32D7408F007C3
:100B340075080318750FF10776080318760AF2078B
:100B44007D10FA031F307A05031D812D7B1B7D1C4C
:100B5400CA2D0310F00DF10DF20DA10D7408F00271
:100B64007508031C750FF1027608031C760FF20258
:100B7400760D21040139FD070318FC0A0319F80A4C
:100B8400031DCA2DF80CFC0CFD0CF30A0319DA2D15
:100B9400FA1FF8137808F2007C08F1007D08F000D1
:100BA4000030DF2D01305E23DF2D02300320DF2DE6
:0E0BB40004301A20DF2D08300A20000008004F
:100BC20083120313FB01730803191E2E7208FA0025
:100BD200F2178E30F302F31F212EF309F30A0830C5
:100BE2007302031C042EF300F10D7208F100F201EE
:100BF20008307302031C042EF300F10DF101730897
:100C0200031D03100C2E730803190C2E0310F20C93
:100C1200F10CF30B072E7B1B711C162E031C162ED8
:100C2200F10A0319F20AF21B2D2EFA1F302EF209D5
:100C3200F109F10A0319F20A302EF201F101302E04
:100C42007B14FB1F332EF201FA1F332EFF30F2000A
:100C5200F100FA0DF20C332E0130FC00352E00307B
:100C6200FC00352EFF30FC00FC080319392E6123ED
:0A0C72007108F0007208F10008009C
:100C7C0083120313661083163208B90035246614E8
:020C8C0008005E
:100C8E0083120313FA017308031D7A147708031DE8
:100C9E00FA147A080319932E033A03195E2E7A1862
:100CAE005B2EF61F912E8F2EF21F8F2E912E720815
:100CBE008039FA00F21376088039F6137A06031992
:100CCE006C2E7A0803198F2E912E77087302031952
:100CDE00732E031C872E8B2E7608720203197A2E22
:100CEE00031C872E8B2E750871020319812E031C8F
:100CFE00872E8B2E740870020319932E03188B2ED9
:100D0E00FA080319912E8F2EFA0803198F2E912EA1
:100D1E00031408000310080003140315080008004C
:100D2E00831203137008F8007108F000F101F2014C
:100D3E00F301FB01FC019630F300FA01F01FAD2E1A
:100D4E00F809F009F80A0319F00AFA177008F10009
:0C0D5E007808F000F801F20140200800C5
:0E0D6A008312031344088A0043088200080025
:100D78008316031386130617831286130330FB00AA
:100D88008A30FC005530FD00FD0BC82EFC0BC82E28
:0A0D9800FB0BC82E0000000008004D
:100DA200831603132008B2002108B30092247008AE
:100DB200A2007108A3007208A4007308A50008002D
:100DC200831203137008F8007108F0007208F10032
:100DD2007308F200F301FB01FC019E30F300FA01FB
:100DE200F21FFF2EF809F009F109F209F80A0319B6
:100DF200F00A0319F10A0319F20AFA170230FC0089
:040E02007B20080049
:100E0600152F803083160313A000282FC030A000B2
:100E1600282F9430A000282FD430A000282F80300F
:100E2600A000282F831603132008013A0319042F64
:100E36002008023A0319092F2008033A03190C2F38
:100E46002008043A03190F2F122F2103F00020085F
:100E5600F0077008A0007008B90035246610EF018D
:100E66006F0883162207840000080319442F831293
:100E76006F088316220784000008B2003E26EF0A98
:080E8600332F831266140800EB
:100E8E00831603138610061006118611061286129B
:100E9E00831286100610861206128611061128205D
:100EAE002820282086150615861426208610282030
:100EBE0086142620861028208614262086102820A8
:100ECE0006118614262086102820861426208610C9
:100EDE008611861686142620861028208612061560
:100EEE0086142620861006118614262086102820A9
:100EFE008614262086100615861426208610282095
:100F0E0006118614262086108616061686150615D8
:0C0F1E0086142620861028206614080087
:100F2A00B5268A110A128000840AC30A0319C40A60
:080F3A00F003031D952F0800D0
:10100000831603132508013EA800A9010318A90AA5
:10101000A601A701F401F501F601F7012008F0008F
:101020002108F1002208F2002308F3008A11472664
:101030008A15013003180030F000700803192E28BB
:101040008316240884002D308000A40A0030A006F6
:101050000030A1068030A2060030A30683162008C7
:10106000F4002108F5002208F6002308F700F0013B
:10107000F101F201F3018A1147268A1501300318A4
:101080000030F0007008031982280030F4000030AE
:10109000F5000030F6007F30F70083162008F000DE
:1010A0002108F1002208F2002308F3008A114726E4
:1010B0008A15013003180030F000700803198228E7
:1010C00083162008F0002108F1002208F20023080E
:1010D000F3000030F4000030F5002030F6008230DC
:1010E000F7008A11C9248A1570088316A0007108B8
:1010F000A1007208A2007308A3000130A602031C1D
:10110000A703452883160030F4000030F500203096
:10111000F6008230F7002008F0002108F1002208D4
:10112000F2002308F3008A1147268A150130031CB8
:101130000030F00070080319BE280030F4000030C1
:10114000F5002030F6008230F70083162008F0000A
:101150002108F1002208F2002308F3008A112A2551
:101160008A1570088316A0007108A1007208A200F9
:101170007308A300A60A0319A70A82288316260863
:10118000A80727080318013EA9070130AA0000306C
:10119000AB000030AE000030AF000030B0007F3058
:1011A000B10080302B06F000803029067002031D4C
:1011B000DB2828082A020318FD280030F40000303C
:1011C000F5002030F6008230F7002E08F0002F08DE
:1011D000F1003008F2003108F3008A112A258A153F
:1011E00070088316AE007108AF007208B000730873
:1011F000B100AA0A0319AB0AD1280030F40000306C
:10120000F5000030F6008030F7002E08F0002F08BF
:10121000F1003008F2003108F3008A112A258A15FE
:1012200083162008F4002108F5002208F6002308A0
:10123000F7008A1109228A1570088316A000710828
:10124000A1007208A2007308A3000030F40000306F
:10125000F5002030F6008230F7008A1147268A1503
:101260000130031C0030F0007008031943290030DE
:101270008316A0000030A1000030A2007F30A30040
:10128000A60A0319A70A831680302706F0008030CB
:101290007002031D4D2900302602031884292408FA
:1012A000840030308000A40A240884002E3080009E
:1012B000A40A80302906F00080307002031D6229E4
:1012C0000030280203186A292808A602031CA70375
:1012D0002908A702FF30AA00FF30AB0080302706A4
:1012E000F00080302B067002031D78292A082602A0
:1012F000031884292408840030308000A40A0130B7
:10130000AA02031CAB036E29AA01AB0180302B0695
:10131000F000803029067002031D902928082A0257
:101320000318FA292008F0002108F1002208F20031
:101330002308F3008A11E1258A1570088316AC0092
:101340007108AD003030F007240884007008800078
:10135000A40A2B082706031DAF2926082A06031D09
:10136000B629240884002E308000A40A2C08F0003E
:101370002D08F1008A1197268A1570088316AE0091
:101380007108AF007208B0007308B1007008F40073
:101390007108F5007208F6007308F7002008F000E5
:1013A0002108F1002208F2002308F3008A118C249E
:1013B0008A1570088316A0007108A1007208A200A7
:1013C0007308A3000030F4000030F5002030F60070
:1013D0008230F7008A11C9248A1570088316A0008C
:1013E0007108A1007208A2007308A300AA0A0319D9
:0C13F000AB0A8629240884008001080054
:1013FC00A53083120313A2004730A3000130A400D0
:10140C00A5014F30A6006630A7006630A8007330E7
:10141C00A9006530AA007430AB003D30AC00AD01C2
:10142C005030AE004530AF005330B0004F30B100FB
:10143C003D30B200B3012030B4002030B500203074
:10144C00B6002030B7002030B8002030B900203072
:10145C00BA002030BB002030BC002030BD00BE01E3
:10146C002130BF005530C0004330C1007630C2007F
:10147C0083160717871707108A1147278A1501301B
:10148C008316B9008A1135248A150C308316B900DD
:10149C008A1135248A1502308316A0000130A10070
:1014AC002E30A2008A1103278A150330FB008A30E4
:1014BC00FC005530FD00FD0B612AFC0B612AFB0B77
:1014CC00612A000000008A11BC268A15013083169F
:1014DC00A0000130A1002630A2008A1103278A1532
:1014EC002208F0002308F1002408F2002508F3007C
:1014FC008A11E1268A1570088316A0007108A100D4
:10150C007208A2007308A3004530A4000130A500A6
:10151C0000200130A0000830A1004530A2008A1143
:10152C0003278A150A308316B2008030B3008A1163
:10153C0092248A157008EB007108EC007208ED001B
:10154C007308EE002208F0002308F1002408F200D2
:10155C002508F3008A11E1268A157008E700710846
:10156C00E8007208E9007308EA006B08F0006C08E8
:10157C00F1006D08F2006E08F3008A11E1268A155D
:10158C006708F4006808F5006908F6006A08F700B7
:10159C008A118C248A157008E2007108E300720825
:1015AC00E4007308E5003F08F4004008F50041082A
:1015BC00F6004208F7008A11C9248A157008E20067
:1015CC007108E3007208E4007308E5007008F40089
:1015DC007108F5007208F6007308F700F001F101CC
:1015EC00F201F3018A1147268A150130031C0030E1
:1015FC00F00070080319062BE201E301E401E50198
:10160C0062088316A000831263088316A10083125C
:10161C0064088316A200831265088316A300453064
:10162C00A4000130A50000200230A0000A30A10067
:10163C003430A2008A1103278A1502308316A000C9
:10164C000A30A1004530A2008A1103278A15013007
:10165C0087068230FC00DD30FD00FD0B332BFC0BCC
:10166C00332B00000000071B662B07100A30831673
:10167C00A0008030A1008A11D1268A152208F00022
:10168C002308F1002408F2002508F3008A11E12652
:10169C008A1570088316A0007108A1007208A200B8
:1016AC007308A3004530A4000130A50000200130D0
:1016BC00A0000830A1004530A2008A1103278A152A
:1016CC00871BC52B071032308316B2008030B30055
:1016DC008A1192248A157008EB007108EC007208CC
:1016EC00ED007308EE002208F0002308F100240836
:1016FC00F2002508F3008A11E1268A157008E7002C
:10170C007108E8007208E9007308EA006B08F00041
:10171C006C08F1006D08F2006E08F3008A11E126E6
:10172C008A156708F4006808F5006908F6006A086D
:10173C00F7008A118C248A157008DE007108DF000E
:10174C007208E0007308E1007008F4007108F500FD
:10175C007208F6007308F7000030F0000030F1005A
:10176C007A30F2008830F3008A112A258A15700825
:10177C00BF007108C0007208C1007308C200982A2B
:02178C00C62B6A
:02400E00412F40
:00000001FF
